:020000040000FA
:1000000018730020F1730000075F0200DD73000029
:10001000DD730000DD730000DD730000DD730000A0
:1000200000000000000000000000000065750000F6
:10003000DD73000000000000F9740000DD730000B3
:100040002577000025770000257700002577000040
:100050002577000025770000257700002577000030
:100060002577000025770000257700002577000020
:100070002577000025770000257700002577000010
:100080002577000025770000257700002577000000
:1000900025770000257700002577000025770000F0
:1000A00025770000257700002577000025770000E0
:1000B00025770000257700002577000025770000D0
:1000C00025770000257700002577000025770000C0
:1000D00025770000257700002577000025770000B0
:1000E00025770000257700002577000025770000A0
:1000F0002577000025770000257700002577000090
:10010000257700002577000025770000257700007F
:10011000257700002577000025770000257700006F
:10012000257700002577000025770000257700005F
:10013000257700002577000025770000257700004F
:10014000257700002577000025770000257700003F
:04015000257700000F
:100158007BB972B90029BEBF00204FF0004106E00C
:1001680008BF00281CBF6FF000414FF0FF3000F0BF
:1001780057B8ADF1080C6DE904CE002909DB002B56
:100188001ADB00F069F8DDF804E0DDE9022304B0C9
:100198007047404261EB4101002B1BDB00F05CF82B
:1001A800DDF804E0DDE9022304B0404261EB4101DF
:1001B800524263EB43037047524263EB430300F040
:1001C8004BF8DDF804E0DDE9022304B0404261EBBE
:1001D80041017047524263EB430300F03DF8DDF8FC
:1001E80004E0DDE9022304B0524263EB43037047A5
:1001F80053B94AB9002908BF00281CBF4FF0FF3186
:100208004FF0FF3000F00CB8ADF1080C6DE904CEEA
:1002180000F022F8DDF804E0DDE9022304B07047BD
:10022800704700BF10F8012B11F8013B012A28BFC5
:100238009A42F7D0D01A7047034611F8012B03F8F9
:10024800012B002AF9D17047034613F8012B002A25
:10025800FBD1181A013870472DE9F04786468C46BD
:100268000846089E154674461946002B40F0C18082
:100278008542B2FA82F245D94AB1C2F1200300FAA6
:1002880002FC954094402EFA03F343EA0C0C4FEA23
:10029800154EA8B2230CBCFBFEF80EFB18CC08FBCD
:1002A80000F943EA0C43994528D9EB1808F1FF37C0
:1002B80004D2994502D9A8F102072B44A3EB0903FC
:1002C800A4B2B3FBFEFC0EFB1C330CFB00F044EAAB
:1002D8000344A04214D92C190CF1FF3304D2A042D4
:1002E80002D9ACF102032C44241A43EA07401EB198
:1002F800D440002334607360BDE8F0874746DDE7EB
:100308006346F1E792BB431B01214FEA154EAFB29A
:10031800200CB3FBFEFC0EFB1C330CFB07F840EA79
:100328000343984561D9EB180CF1FF3004D2984586
:1003380002D9ACF102002B44A3EB0803A4B2B3FB2F
:10034800FEFC0EFB1C330CFB07F744EA0344A742F0
:100358004DD92C190CF1FF3304D2A74202D9ACF1C4
:1003680002032C44E41B43EA0040C0E7C2F1200327
:100378009540944020FA03F12EFA03F34FEA154E04
:100388009040AFB20343B1FBFEFC0EFB1C10190CEE
:100398000CFB07F841EA0041884522D969180CF19D
:1003A800FF3004D2884502D9ACF102002944A1EB00
:1003B80008019BB2B1FBFEFC0EFB1C110CFB07F7FE
:1003C80043EA01439F420ED9EB180CF1FF3104D2E6
:1003D8009F4202D9ACF102012B44DB1B41EA0041E8
:1003E80093E76046E3E76146F7E76046A4E76346BC
:1003F800B8E7834206D916B9002108467CE7C6E962
:1004080000E0F9E7B3FA83F78FB9834201D3724565
:1004180008D8BEEB020460EB030301209C461EB91A
:10042800002169E73846FAE7C6E9004CF8E7C7F162
:10043800200CBB400EFA07F522FA0CF42EFA0CF148
:10044800BA401C4320FA0CF3B8404FEA1449014360
:100458001FFA84FEB3FBF9F809FB18300B0C08FBF4
:100468000EFA43EA00439A4540D9E31808F1FF30F1
:1004780004D29A4502D9A8F102002344A3EB0A0347
:1004880089B2B3FBF9F809FB183308FB0EFE41EA01
:1004980003418E452CD9611808F1FF3304D28E45EB
:1004A80002D9A8F10203214443EA0040A1EB0E015E
:1004B800A0FB02984145CE46434602D306D14D459E
:1004C80004D20138B9EB020E68EB0403002EA7D062
:1004D800B5EB0E0261EB030101FA0CFC22FA07F3FB
:1004E800F9404CEA0303C6E9003199E74046C5E7FD
:1004F8004346D9E7000000002DE9F04706460F46BD
:10050800904688B02BF026F94FF47A73A0FB034588
:1005180003FB0155E40B012F44EA45444FEAD53566
:1005280007D122462B463046274924F058FD0020A3
:1005380012E0D8F8047025483946FFF773FE70B109
:1005480039462348FFF76EFE48B130463A462149FE
:1005580024F061FD6FF0040008B0BDE8F087204684
:1005680017A3D3E900232946FFF7F2FD05460C46F9
:1005780010461946184A0023FFF7EAFD80460F4641
:10058800104619464EF660220023FFF7E1FD824629
:100598008946104619464FF47A720023FFF7D8FDB2
:1005A800CDE902A9CDE90623CDE904012A4623466F
:1005B8003046CDE90087094924F011FDB7E700BFAF
:1005C800005C26050000000088EA020099EA0200A3
:1005D8009CEA0200A5EA020080EE3600BDEA0200AD
:1005E80008B5024823F020FB002008BD60DF0200A8
:1005F80010B5094C0A44914200D110BD11F8013BD5
:1006080058400309E35C0001C0B243401809205C6C
:100618001B01DBB25840EEE786DF0200F8B50F4653
:1006280000293BD006680122304623F00AF901462A
:100638000446304623F0CDF8C3070DD4AF23184A3B
:100648001849194823F01BFB3946184823F017FBB3
:10065800AF21134823F00AFB2146304623F0CFF898
:10066800251829460022304623F0B3F82D1AAC424B
:100678000BD0B7230A4A0E490B4823F000FB394632
:100688000C4823F0FCFAB721E3E72146304623F073
:10069800BCF82146BDE8F84023F0F8B9F8BD00BF22
:1006A80096DF0200B9DF0200CADF0200E7DF0200BE
:1006B8001FE0020045E002002DE9F8430F460668F6
:1006C8001446B2684B1EB2F5004F34BF042108210E
:1006D8003B4010D0C7F1000909EA0709494503F171
:1006E800FF3028BF494618420CD11F46DCB9002507
:1006F8002846BDE8F8838F4213D82146BDE8F84361
:1007080023F006BA2E494FF4A2732E4A2E4823F03E
:10071800B6FA2E4823F0B3FA4FF4A271294823F011
:10072800A5FA9946E2E7B2EBD40FE0D9E319591AD2
:10073800104623F090F80146304623F0E6F880464C
:100748000028D4D0B36809EBC005B3F5004F34BF17
:10075800042308231D4435447B1E1D44B5FBF7F5CF
:100768007D43A5EB09052946304623F06AF82C4459
:10077800073424F00704A41B804507464FEAE40425
:1007880008D202464146304623F0F9F84146304641
:1007980023F03AF93946304623F031F83844844298
:1007A80008D239463046224623F0E9F82146304639
:1007B80023F02AF901223946304623F026F897E734
:1007C80081E0020096DF0200CADF02009CE002001E
:1007D800B2F5802F2DE9F04110D2042A28D84349D8
:1007E8004FF4F973424A434823F049FA424823F048
:1007F80046FA4FF4F9713E4823F038FA0823D21A22
:10080800CC1D114424F0070421F00701091B172906
:100818004FEAD1060ED8394940F2FB13344A35481D
:1008280023F02DFA344823F02AFA40F2FB11E2E7CC
:100838000423E4E70027046031463046A660E760F9
:1008480023F012F80121421D8046304623F003F8B8
:100858009200D51DED082844B0423AD8B8F1FF3FC0
:100868003946A2F1100204F11000B8BF3A462BF045
:100878009DF82A463946204622F0DFFF3B463A4695
:100888003946204622F0B0FFA6EB05082046394637
:10089800012222F0BAFF4246294622F0CEFF2B461B
:1008A8003A462946204622F09FFF3146204622F04C
:1008B800C4FF43463A463146204622F095FF31466A
:1008C8002046012222F0A1FF2946BDE8F04123F08D
:1008D8009BB80B494FF40373054A064823F0CFF938
:1008E800054823F0CCF94FF4037184E7B9E002001E
:1008F80096DF0200CADF0200DAE00200F3E002003D
:100908001CE102002DE9F04F91B0009302F00403BE
:100918000193C2F3C20301330493830705460E46CD
:10092800DDF86890029240F0FC81041D30B107297F
:1009380009D86FF01B0011B0BDE8F08F01F0070671
:100948003444C6F108064FF000084FF0040B009B32
:100958004746591E4FF0FF324346DA46CDF80C8021
:100968000DB1009820600498002800F3DF809B48B0
:10097800DDF800C0844503D399488445C0F0D6808B
:10098800DDF808C0A4EB050E1CF0020F4FEA9E002C
:1009980000F0E7804FF0000CD1E07A2862D84B28AD
:1009A8000FD847285ED829282DD8252859D059D8B6
:1009B80020287DD0A0F12309D9F1000343EB0903D6
:1009C80076E04C382E284DD8DFE800F0724C4C4CBD
:1009D8004C4C4C4C4C4C4C4C4E4C4C4C4C4C4C4C4D
:1009E8004C5C4C4E4E5C5C5C724E6F4C724C184EBC
:1009F800184C4C817E4E4C4C4E4C7E0000200023FF
:100A08004FF0040B3CE04FF0010E2A38C0B20EFA4A
:100A180000F04FF6DA7E10EA0E0F49D110F0625E50
:100A280030D110F0010343D07046013C5C44B4FB64
:100A3800FBF40BFB04F4002D5ED0AAEB050EA644D4
:100A4800B6453FF676AF002868D1BAF1040F43D116
:100A5800E14659F8040B2060CC464FF0040A0434F0
:100A680026E0013A002323E011F8013C6C2B30D139
:100A7800002011F8023C6C2B0346C1D14FF0080B43
:100A8800DA46D2E70CF1070929F0070C073424F0FD
:100A98000704FCE802AB35B105982044B0423FF6A4
:100AA80048AFC4E900AB002308344FF0080BDA461E
:100AB80011F8010F002800F0BC80002B7FF46DAF07
:100AC8002528F5D1012301324FF0040BEFE7184632
:100AD80095E700200346A8E7BAF1080F40F09B808D
:100AE8000CF1070929F0070CFCE8029AC4E9009AFE
:100AF8004FF0080A0834DBE780B9BAF1040F02D1D5
:100B08000CF10409A8E7BAF1080F40F084800CF151
:100B1800070929F0070909F1080CE9E7E1460498F3
:100B28000138049059F8040B009019E702988007DF
:100B380048D54FF0010CA4EB050E4FEA9E00BEF518
:100B4800007F1DD327494FF41F73274A274823F0F6
:100B580096F8274823F093F84FF41F71224823F0A2
:100B680085F80F2F0ED8002D46D007F1400CEC4425
:100B78000CF8200C0CF8102C03980130039020E09E
:100B88000F2F0CD9174940F28123174A174823F031
:100B980076F8184823F073F840F28121DEE7BDB1FA
:100BA80007F1400EEE44C0B20EF8200C0EF8102CDF
:100BB800BCF1000FE0D060F07F000EF8200C08F1C7
:100BC80001080137C5F10800CC46043405906FE7E9
:100BD800BCF1000F10D00136F3E700BF40BE0200A1
:100BE800F87B0300FDF2020047E10200CADF0200C1
:100BF80075E1020096E10200019802360028E0D172
:100C08000098CDE906310592FFF71EFBDDE90631B4
:100C1800059A0644D5E740F2C623434A4349444867
:100C280023F02DF85146434823F029F840F2C62115
:100C380094E7631BB3F5806F0CD33C4940F2D22391
:100C4800394A3B4823F01BF83B4823F018F840F298
:100C5800D22183E71DB9A6F10804E0186BE6019AD2
:100C68009B0828602B709DF80C30C2B1EB7085F89A
:100C78000280B8F1000F05D0002208A8C5F1010CC8
:100C880097420ED14FF0000AC5F101030DF120097A
:100C980002930DF1300B574512D1601B4BE66B7078
:100CA800E5E710F8013B190608D50CEB040EB6452C
:100CB80003F07F033FF63DAE04F8013B0132DFE766
:100CC800B8F1000F03D099F90020002A17DB019B27
:100CD800D3B11AF80B2004F8012B0022029B181933
:100CE8001044B0423FF625AE99F80000009904F888
:100CF800010B204603922AF032FE039A14440AF1AB
:100D0800010A09F10109C6E799F8002055F82230CF
:100D18000093019B009845F82230FFF795FA421C92
:100D2800DCE76FF00D0006E647E10200FDF2020085
:100D3800CADF0200B0E10200C5E102002DE9F04F70
:100D480097B000AF89460446D7F880B0FA623B6294
:100D580058B9AB4940F29933AA4AAB4822F08FFF01
:100D680040F29931A74822F081FFCBF3C00390F8F5
:100D780002A07B6141B9457800780AEB80002044E5
:100D88004D4517D8A0EB0409E378FB61BAF1000FD1
:100D980002D01BF0010F16D1FB6953BBFB6A1BB1D4
:100DA800494620463A6A98474D4628465C37BD462C
:100DB800BDE8F08F461C3046FFF746FA0130304454
:100DC80009F10109DCE7626823787A62FA6A990016
:100DD800B96104EB8301002A40F006810E464FF00A
:100DE80000084D4601EB0A09B14550D101EB0A064E
:100DF80010E01BF0020FD1D023789A00BA61626824
:100E080004EB83017A62FA6A002A7BD14D46904648
:100E180001EB0A061BF0050F0CBF02230123FB623E
:100E2800FB6906EB430A0BF00203BB625645BCD0D4
:100E380016F8021B16F8013C54F82390734B994599
:100E480002D3734B99453AD37B69002B44D0786A17
:100E580022F0C1FE00283FD06E48036813F0060F49
:100E680013D0E9468AB06A466B4B53617B6AC2E984
:100E780006314FF400731384684B42F8103F002387
:100E88004FF4125102F07CFCCD46023DCEE716F835
:100E9800013BF96254F82300FFF7D6F9D7F88430FC
:100EA800F96A01304BB1D7F8883098453EBFD7F87A
:100EB800843023F8180008F10108054494E77B6999
:100EC80023B1786A22F087FE0028C5D11BF0010FF4
:100ED80005D1FB6AED1AA9E7BB6A002BA6D04846E4
:100EE800FFF7B2F9D7F8843053B1D7F8883098456E
:100EF8003FBFD7F88420431C22F8183008F10108B6
:100F0800054493E7BAF1000F74D01BF0040674D0BF
:100F1800D046002607F1480052463B61B9622AF0E4
:100F28001EFDB96A3B6901EB0A02BA62FA69F969FE
:100F38005200FA60BA6A02EB41023A610BF002020F
:100F4800BA60BA6A39698A426AD162781BF0020FBC
:100F580018BF00217A6208BF4FEA5801B2181BF087
:100F6800010FD2B240F0E5801BF0040F14BF4046D9
:100F780000207B616270A070E17020463A6AB9690E
:100F8800FB6A9847051EFFF610AF7B694146237040
:100F98007B6A3A6A6370FB6984F802A0E37007F120
:100FA8004800FB6A9847B0F10008C0F2F680BB69B8
:100FB800A9EB0A01C91AFB683A6AC91AD7E90A03F0
:100FC80098470028C0F2EB804FF0000BA84408EBCC
:100FD800000507F1380AB345C0F0AD8000213A6A30
:100FE8000846FB6A9847E0E656464FF0000807F1C6
:100FF800380091E75646D04695E7B04693E700BFDC
:10100800DCE1020047E10200CADF020040BE020044
:10101800F87B030014090020F7E102000400000136
:10102800BA6A12F8021B12F8015CBA6254F8250079
:101038005C4A904202D35C4A904218D37A693AB12A
:10104800786A7B6022F0C7FD7B6800287FF479AF5F
:10105800BA68002A4CD00F2E40D9544940F24D436B
:10106800534A544822F00BFE40F24D417AE67A6921
:101078003AB1786A7B6022F0AEFD7B6800287FF485
:1010880060AF1BF0010F0BD00F2E27D9474940F254
:101098004343474A474822F0F2FD40F2434161E6A4
:1010A8001BF0040F3FF44DAFB8F10F0F09D94249B7
:1010B80040F246433E4A3F4822F0E1FD40F24641B5
:1010C80050E608F1280207F1300008F1010102EBAF
:1010D800000808F8105C5FFA81F832E706F1280288
:1010E80007F13000711C161806F8205CCEB228E70C
:1010F800B8F10F0F09D930494FF48A632C4A2D48AB
:1011080022F0BDFD4FF48A612CE608F1280207F1B0
:10111800300C08F10100944407F1580208F1020864
:1011280052FA80F00CF8101C5FFA88F800F8105C8E
:1011380007E700201DE71BF80A3054F8239087F8CA
:101148003730D7F884302BB3D7F888309B4521D275
:10115800D7F8843033F81B8001213A6AFB6A07F11B
:101168003700984700281ADB0544B8F1000F06D16C
:101178004846FFF769F800F101081FFA88F8414668
:1011880048463A6AFB6A9847002808DB05440BF191
:10119800010B20E74FF00008DEE7454605E6054667
:1011A80003E600BF40BE0200F87B03009AE202009B
:1011B80047E10200CADF0200B9E20200014B1860F1
:1011C800704700BF0000002080B505460E46174650
:1011D80098461DF023F803462AF024FE0446DFF85B
:1011E8001890424649F8003039463046A84754F826
:1011F800090006F067F900BF0800000030234343E8
:1012080030B50D4908330B44D3E8AF2F92B1541EC3
:10121800D3E8EF5F954204D1C3E8EC4FBCF1000F6F
:10122800F6D1F1D1012A05D13023584300230A18F9
:101238000B50536030BD00BFC01F002070B50025A3
:101248004FF0FF334FF0FF32184822F009FD184BDA
:10125800D3E8AF2F82B10135042D03F13003F7D164
:101268002AF0E0FD17224FF0FF35124B1A500F48B5
:1012780022F0F8FC284670BD30246C43D3E8EF0F09
:101288000130C3E8E10F0029F8D10B4E3319325170
:101298005A609A6204F10C0030442AF01EF904F1F5
:1012A800200030442AF0CBF9E1E700BF4C0A0020C7
:1012B800C81F00200C000000C01F00202DE9F041CD
:1012C8003024164644430F4A101911514660C36230
:1012D800B6B1F368A3B12AF0A5FD0B4F0C3450F852
:1012E80007801319054640F20512304622F0A9FC82
:1012F800B8F15F0F04D0EB595F2B08BF45F80780A2
:10130800BDE8F081C01F00200C00000038B50D4674
:101318000446202200212AF049FB0022EB68E36101
:10132800AB68A3612B6823626B68A26263622A6957
:1013380023B1591E194208BF42F00102226101225D
:10134800002104F12C002AF005F948B105490648A6
:101358002F23064A22F093FC2F21044822F086FC12
:1013680038BD00BF10E30200CADF0200EAE2020053
:101378002DE9F04F002789B0CDE90123436A0446DF
:101388008B428846BA460597079754D300F114064E
:10139800EFF31185202383F31288BFF36F8F304654
:1013A800A9461DF08DF958B988234D4A4D494E4834
:1013B80022F065FC31464D4822F061FC882163E04B
:1013C80030461DF0A1F9079A2AB13946204622F085
:1013D80037FD0023079306A9204622F05DFC0699F5
:1013E8008346414530D32268236A204613F82210E9
:1013F80003EB820A21F0030103F822102168424618
:1014080022F06EFCE3682060984218D04FF0000B81
:1014180030461DF063F950B389F31188BFF36F8F1D
:10142800059929B1A2690AB120469047002305937E
:10143800BBF1000FACD1504609B0BDE8F08F23696D
:1014480043F008032361E1E718B1204622F062FC6B
:10145800DEE7DDE90132134339D003912AF0F3F8CE
:101468000399A0BB9DBB30461DF038F978B940F20E
:1014780031131B4A1E491C4822F001FC31461D4805
:1014880022F0FDFB40F23111154822F0EFFB85F305
:101498001188BFF36F8F04F12C00DDE901231AF0E6
:1014A80087FF8346EFF31189202383F31288BFF364
:1014B8006F8F30461DF004F900283FF475AFBBFA72
:1014C8008BFB30461DF020F94FEA5B1BA0E7204656
:1014D80007AB05AA276822F03CFC834698E700BFC3
:1014E80019E3020046E30200CADF02005BE30200E0
:1014F80071E3020088E302002DE9F0410446C36964
:1015080008460E46984704F114050746EFF311887C
:10151800202383F31288BFF36F8F28461DF0D0F87D
:1015280068B988231A4A1B491B4822F0A8FB294698
:101538001A4822F0A4FB8821154822F097FB284678
:101548001DF0E2F833783A4643F0010333706168DE
:10155800204622F0C5FB6060204622F08CFC28461D
:101568001DF0BCF868B940F23113094A0C490A4821
:1015780022F085FB29460B4822F081FB40F231110D
:10158800DAE788F31188BFF36F8FBDE8F08100BFF9
:1015980019E3020046E30200CADF02005BE302002F
:1015A80071E3020088E302002DE9F843044600F1E4
:1015B8001407EFF31188202383F31288BFF36F8F8A
:1015C80038461DF07DF8054668B98823344A354900
:1015D800354822F054FB3946344822F050FB882124
:1015E8002F4822F043FB38461DF08EF82369A26885
:1015F80013F0080F02D163689A4200D9636A9B1AF4
:10160800002B3FD0216A11F8223001EB820913F038
:1016180003003AD0022803D151F82260B60805D158
:10162800D8071FD44846E36998470646A16832465A
:10163800204622F055FB3146A060204622F05EFB92
:1016480038461DF04BF810BB40F23113144A1849C4
:10165800154822F014FB3946164822F010FB40F2D8
:101668003111BDE743F0020301F82230E36948462F
:10167800A568984729460246204622F031FB0025F6
:10168800A060DDE71D46A946DAE70546FBE788F3D3
:101698001188BFF36F8F002D8BD14846BDE8F883C2
:1016A80019E3020046E30200CADF02005BE302001E
:1016B80071E3020088E302002DE9F0410446C369A2
:1016C80008460D46984704F114060746EFF31188BB
:1016D800202383F31288BFF36F8F30461CF0F0FF8E
:1016E80068B98823274A2849284822F0C8FA314689
:1016F800274822F0C4FA8821224822F0B7FA304657
:101708001DF002F82B786FF300032B7023699B07F9
:1017180005D5E268236A03EB82039D4222D12B7828
:101728006FF341032B70D4E90231994204D13A4650
:10173800204622F0D5FAA0603946204622F0DEFA8B
:1017480030461CF0CBFF90B940F231130D4A1149D5
:101758000E4822F094FA31460F4822F090FA40F2EF
:101768003111C9E72B6867F39F032B60E8E788F31B
:101778001188BFF36F8F04F12C00BDE8F0411AF017
:10178800AFBD00BF19E3020046E30200CADF020052
:101798005BE3020071E3020088E3020070B50446CF
:1017A80000F11405EFF31186202383F31288BFF3A9
:1017B8006F8F28461CF084FF68B988231A4A1B4992
:1017C8001B4822F05CFA29461A4822F058FA882168
:1017D800154822F04BFA28461CF096FF2369A068AA
:1017E80013F0080F02D16368984213D9646A241A67
:1017F80028461CF073FF78B940F231130A4A0E49A3
:101808000B4822F03CFA29460C4822F038FA40F2FC
:101818003111DDE71C1AEBE786F31188BFF36F8FF0
:10182800201E18BF012070BD19E3020046E3020024
:10183800CADF02005BE3020071E3020088E30200F2
:101848002DE9F84F0446A38B08461907154612D40C
:10185800022803F0070165D1204622F069FB88B110
:101868000138042800F23781DFE810F05C00350108
:101878008200D400040101280CBF43F0100143F09A
:101888002001A183143420461CF028FF002840F0D2
:101898009D819A4940F23113994A9A4822F0EFF90A
:1018A8002146B1E003F00702501F01281ED800208E
:1018B800062A2768C4E9000014D13A4603E0E08B01
:1018C8000130E0831268002AF9D123F0070343F0BE
:1018D80002022046A28322F02BFB90B342F02002A2
:1018E800A2832EE023F007039AB2F2E7042A33D149
:1018F80023F007039AB22046A28322F019FB10B105
:1019080042F02002A283A38B03F00709894540F027
:10191800EC80A18BCA0640F1508121F01003A3830B
:1019280001F00701D4F81880A38BB8F1000FB9DAD9
:101938000022276823F00703C4E9002243F00103CB
:10194800A383A38B03F00709894540F0CF80002FBC
:10195800DFD00026B24644E06B4940F21B136B4AC5
:10196800684822F08CF940F21B11684822F07EF991
:1019780049B167494FF4AB73644A624822F07FF972
:101988004FF4AB71F1E723684BB9624940F2571342
:101998005E4A5C4822F073F940F25711E5E7236983
:1019A8001E684EB95C494FF4AD73584A554822F049
:1019B80066F94FF4AD71D8E70F4688464FF006092F
:1019C800A38B23F0070343F006039BB2A383A2680B
:1019D800002A40F08D80002F40F08D80002E98D096
:1019E800BA4643F0080304F1140B5846A3831CF0CD
:1019F80075FE002840F09A80404940F23113404A71
:101A0800404822F03CF95946444822F038F940F25F
:101A18003111ADE0022909D0414940F25D133B4A3A
:101A2800384822F02CF940F25D119EE7E78B4FB160
:101A38003C494FF4AF73354A324822F020F94FF44D
:101A4800AF7192E723695E684EB9334940F261137A
:101A58002E4A2C4822F013F940F2611185E7A38B36
:101A6800B84623F0070343F004039BB24FF0040980
:101A7800A383ACE7012909D02B494FF4B273234A59
:101A8800204822F0FCF84FF4B2716EE723684BB996
:101A9800204940F265131D4A1A4822F0F0F840F236
:101AA800651162E723699E684EB91B494FF4B47308
:101AB800164A144822F0E3F84FF4B47155E70027AA
:101AC800A38BB84623F0070343F005039BB24FF0FE
:101AD8000509A3837BE70C4940F26B130B4A0948BD
:101AE80022F0CDF840F26B113FE7002700266EE7A1
:101AF8004FF0010A75E7924673E700BF71E30200F1
:101B080019E30200CADF0200FDF202009DE30200B1
:101B1800C2E30200CEE30200F1E3020088E3020020
:101B280008E402001EE402002DE4020085F3118897
:101B3800BFF36F8FBAF1000F1CD177BB16B12046E7
:101B48002549B047EFF31185202383F31288BFF3AB
:101B58006F8F58461CF0B4FD38BB88231F4A2049B4
:101B6800204822F08CF859461F4822F088F888212E
:101B78001A48FBE6A1680029DFD00D680029DCD0EF
:101B880043464A462046D1F804A0D0471DB12B68E9
:101B980029461D46F2E72B46FAE7394643464A46A8
:101BA80020463F6822F0F0F9C7E758461CF0ACFD24
:101BB800A38B23F00803A383ABE68B067FF562AE05
:101BC80021F02003A38301F0070145E685F311887E
:101BD800BFF36F8FBDE8F88FF51B000019E3020013
:101BE80046E30200CADF02005BE30200F8B50446E0
:101BF8000D4600F11406EFF31187202383F31288B2
:101C0800BFF36F8F30461CF05BFD68B988230C4A20
:101C18000C490D4822F033F831460C4822F02FF8D1
:101C28008821074822F022F830461CF06DFDA56196
:101C38003A462046BDE8F8400121FFF701BE00BF43
:101C480019E3020046E30200CADF02005BE3020078
:101C58002DE9F04704460F4622F086F9051E68DB99
:101C680004F11409EFF3118A202383F31288BFF3D8
:101C78006F8F48461CF024FD804660B98823384A97
:101C88003849394821F0FBFF4946384821F0F7FF29
:101C98008821334842E048461CF036FD4FF6FF7273
:101CA800E38BA68B934206F0070645D0022E15D18A
:101CB80035460133E38348461CF010FD002841D126
:101CC80040F23113264A2A49274821F0D8FF4946CD
:101CD800284821F0D4FF40F23111DAE7062E13D854
:101CE800DFE806F0092D1212090409006FF08505D6
:101CF8004FF00008DFE700233B60636883B9C4E95D
:101D0800007786B13546F3E71B4917484FF4E4736B
:101D18001A4A21F0B4FF4FF4E471184821F0A6FFE5
:101D28001F606760EDE7524602212046FFF788FDF5
:101D380035462846BDE8F0876FF00A05D8E76FF00A
:101D48000405D5E78AF31188BFF36F8FB8F1000F48
:101D5800EFD0002332463946204622F015F9E8E74D
:101D680019E3020046E30200CADF02005BE3020057
:101D780071E3020088E302002DE402009DE3020003
:101D8800F8B5054600F11406EFF31187202383F315
:101D98001288BFF36F8F30461CF092FC60B988231D
:101DA800254A2649264821F06AFF3146254821F070
:101DB80066FF882120482BE030461CF0A5FCAC8B40
:101DC80004F00704022C17D0012C0CBF6FF0040498
:101DD8006FF0850430461CF081FC38BB40F23113AB
:101DE800154A1949164821F04AFF3146174821F08B
:101DF80046FF40F23111DDE7EB8B5BB9144910481F
:101E080040F2EF13134A21F03AFF40F2EF11114864
:101E180021F02CFF013B9BB2EB83002BDAD13A4631
:101E280021462846FFF70CFD2046F8BD87F31188A8
:101E3800BFF36F8FF8E700BF19E3020046E3020023
:101E4800CADF02005BE3020071E3020088E30200DC
:101E580043E402009DE3020008B54268034602F02D
:101E68000302022A81600AD0032A4FF0000103D03E
:101E7800012A0AD1596006E01868596008BD186837
:101E880000225A6058B90020F8E706490648452359
:101E9800064A21F0F4FE4521044821F0E7FE1DF032
:101EA80041FCF0E7FDF20200CADF020051E4020043
:101EB8002DE9F34180460E46154600272A4601A91A
:101EC800404622F09EF8044602463146019829F021
:101ED80046FD2D1B2744264401D0002CEED139465F
:101EE800404622F0ABF848B1064907484923074A5B
:101EF80021F0C5FE4921054821F0B8FE384602B058
:101F0800BDE8F08110E30200CADF020077E40200B6
:101F18002DE9F34180460D461646002732464046D5
:101F280001A922F0A0F804462DB1024601992846DD
:101F380029F015FD2544361B274401D0002CEDD18E
:101F48003946404622F0ABF848B1074907488E2386
:101F5800074A21F094FE8E21054821F087FE384675
:101F680002B0BDE8F08100BF10E30200CADF020042
:101F780077E402002DE9F7430F4606460821C06AB8
:101F880022F00DF980463C68DFF84890241A3C603E
:101F980004EA0905AC4203D8002003B0BDE8F08389
:101FA80008236A462146304622F08FF80028F4D1EB
:101FB8006946304622F0FDF840B1BDF80230BDF860
:101FC800042005EA090513441D443C60A4EB0804F9
:101FD800E0E700BF0000FFFF73B504464FF6FF724D
:101FE800C06A082122F0DBF8002563680F4EADF8BF
:101FF80000208DF80620A289191833401344181AB6
:1020080060606846ADF80210ADF8045022F0BEF8E2
:102018006946204622F08DF92046211D22F08EF8CF
:10202800284663683340A36002B070BD0000FFFF1C
:102038002DE9F04704468AB000F11407384629F024
:102048004CFAA06A8368DB689847E06250B99F48F9
:1020580003685D0703D09E4A012122F07CF86FF0E7
:1020680015054EE0A06A8368DB6898470368013B62
:102078001F2B05D9954803685C07F0D0954AEBE714
:10208800A06A216807AA27F053FF28B18F48036880
:102098005907E4D0904ADFE7A5892DB1089BB5FB25
:1020A800F3F203FB12552DB1884803685A07D6D0BE
:1020B8008A4AD1E7E389012B05D8844803685B077E
:1020C800CDD0874AC8E7E36A029593F805904FF0A8
:1020D800FF334FF0FF32384619F090FD0821E06ACF
:1020E80022F05DF8A8460646E3891FFA85FA5345AB
:1020F8000BD8E389434526D1384619F04FFE6FF0D7
:102108002C0528460AB0BDE8F087A1892B04891B55
:1021180013FA81F14A4608232046029121F0E3FF91
:1021280078B1204602A922F009F808F1010808232D
:102138004A46204602991FFA88F821F0D4FF002861
:10214800D7D00135D0E753450BD1029908234A4629
:102158002046891B21F0C7FF18B9204602A921F0A3
:10216800EDFF204602A9FFF705FF054618B13846DE
:1021780019F014FEC5E7029B4FEA13484FEA0848D6
:102188006360C4F80880D4E9011399420FD3082387
:10219800204603AA21F099FF05460028E7D103ABA2
:1021A80013F8012B91453FD10135082DF8D163680B
:1021B80020461B0C1B0402A9029321F0BFFF4A46CC
:1021C8002046A389029921F08EFF051ECFDB6368A4
:1021D80000F09C804FF6FF7903EB0608A3891FFAED
:1021E80088F29B1B9A42CDF8088039D300223748E1
:1021F800036803F00703002A4CD0022B03D90321FC
:10220800384A21F0A8FF636820461B0C1B0402A96A
:10221800029321F093FF2046029921F09EFF054684
:10222800002D00F09180A2E7204603A921F0C1FF0C
:10223800626810B9921B6260A5E7BDF81050BDF83E
:102248000E10E06AC4F80880294421F0A8FF404431
:102258009042A060EED1002DECD06FF01C05AEE0EE
:1022680008234146204605AA21F02FFF05460028ED
:102278007FF47DAF204605A921F09BFF30B1BDF862
:1022880014304B4502D1BDF818300BB1B044A5E766
:102298000122ACE7022B03D90321134A21F05BFF8B
:1022A8002046616821F059FF054600287FF45FAF9A
:1022B80063680E4AA18913400B44A3EB460363608D
:1022C80013402046A36022F05CF8A8E72409002008
:1022D800B6E40200D8E40200F5E402000DE50200CD
:1022E80021E5020044E5020059E502000000FFFF75
:1022F8004A4620465B1A21F0F6FE051EFFF637AF68
:1023080008D0E26AA36812681344A360D4E90131D3
:102318008B42EDD86168A38901EB46029A427FF4AB
:102328007FAFDFF8A880A26801EA08039A423FF469
:1023380077AF204621F011FF054600287FF417AF3C
:10234800636803EA0803A360A389A288A3EB460392
:102358009A4230D0384619F021FD01231C4D2374D0
:102368002B6803F00703022B23D9E389A2890321F1
:1023780000922846174A22F084FB2B6803F00703D3
:10238800022B16D963689AB200921B0C03212846C7
:10239800114A22F076FB2B6803F00703022B08D9B9
:1023A800A3689AB20092032128460C4A1B0C22F01B
:1023B80068FB0025A5E6204621F0CCFF05463846F7
:1023C80019F0ECFC002DC8D09BE600BF0000FFFF11
:1023D8002409002080E5020097E50200A9E5020033
:1023E8002DE9F04F1D46037C91B0044602910092FE
:1023F8006BB9664803685B0703D00121644A21F082
:10240800AAFE6FF00C06304611B0BDE8F08FC26A24
:102418000821104621F0C3FE29460190104621F0FC
:10242800BEFEA389019A0746A3EB8203AB42C0F024
:10243800A9801DB1009B002B00F0A4806368059360
:10244800204606AA05A9DDF814A021F0EFFE0646ED
:102458000028D8D1BDF81830029A934206D0626895
:10246800059B9A42ECD1002D36D1CCE7204606A92F
:1024780021F09FFE0028F2D0BDF81A90BDF81C305C
:1024880045B39D4228D14FEA1A4A4FEA0A4AD14435
:10249800AA46E36ADDF800B01B685B4203F020033C
:1024A8000393DDF80C804946D04528BFD046204626
:1024B800434608AA21F009FE00284AD14246584658
:1024C80008A929F07FFA38B9BAEB080AC144C3440D
:1024D800E7D198E7002B96D0002F3DD1B94604F1FB
:1024E800140A4FF0FF324FF0FF33504619F086FBC5
:1024F800E3899E4243D0A168626809EB01039A42CE
:102508002FD3029B2046ADF82030FF23009A8DF888
:1025180026302B46ADF82210ADF8245021F0D0FE1D
:1025280029460746E06A21F03AFEA3680344A360FF
:1025380057B908A821F02AFE204608A921F0F9FE7B
:10254800002814BF07462F46504619F027FC3E4680
:1025580059E7C1DC064656E7019B1F441FFA87F975
:10256800BDE72046FFF738FD07460028ECD1204696
:1025780021F007FF07460028E6D10136B8E76FF0DB
:102588001B07E1E76FF015063DE700BF24090020AF
:10259800A2E402002DE9FF471E46037C04460F46CD
:1025A8009046BDF8309063B92E4803685B0703D0A6
:1025B80001212D4A21F0CFFD6FF00C0004B0BDE8D9
:1025C800F0870821C06A21F0EAFDA389A3EB400344
:1025D800B34243D30025D4F804A0CDF804A04D4558
:1025E8005146DDF804A009D9636853451ED1BDF8EA
:1025F8000830BB421AD06FF00100DFE7204602AA7C
:1026080001A921F013FE0028D8D1BDF80830BB423B
:1026180006D1204602A921F0CCFD08B10135ADB2A2
:102628006268019B9A42DAD15146E0E7BDF80C3066
:10263800002BE0D0A945DED8BDF80A00090CB3424A
:102648004FEA014128BF334601444246204621F063
:102658003CFD0028B2D1BDF80C00AFE76FF01500C3
:10266800ACE700BF24090020A2E4020010B548B975
:102678000E4803685A0702D00D4921F05AFF6FF03F
:10268800150010BD83684BB9084803685B0702D082
:10269800084921F04EFF6FF00400F2E71B6813B100
:1026A800BDE8104018471846EBE700BF2C0900208A
:1026B800C1E50200D2E5020010B548B90E4803682A
:1026C8005A0702D00D4921F034FF6FF0150010BDF4
:1026D80083684BB9084803685B0702D0084921F0B2
:1026E80028FF6FF00400F2E75B6813B1BDE8104003
:1026F80018471846EBE700BF2C090020C1E5020087
:10270800D2E5020070B508B101B14AB90E480368B4
:102718005A0702D00D4921F00CFF6FF0150070BD6B
:1027280084680CB1E5684DB9074803685B0702D0B7
:10273800074921F0FEFE6FF00400F0E741F8040BB2
:10274800E368BDE8704018472C090020F0E5020056
:10275800D2E5020010B5044648B915480368590780
:1027680002D0144921F0E5FE6FF0150010BD006895
:1027780048B90F4803685A0702D00F4921F0D9FE1B
:102788006FF00100F2E783680BB11B694BB9084889
:1027980003685B0702D0094921F0CBFE6FF0040003
:1027A800E4E7616898470028E0D12060DEE700BFD1
:1027B8002C0900201CE602002DE60200D2E50200EA
:1027C80070B51346044648B914480368590702D03F
:1027D800134921F0AEFE6FF0150070BD006848B9CE
:1027E8000E4803685A0702D00E4921F0A2FE6FF086
:1027F8000100F2E782680AB195684DB90748036895
:102808005B0702D0084921F094FE6FF00400E4E76A
:102818000A46AC466168BDE8704060472C09002054
:102828001CE602002DE60200D2E50200034A136806
:102838000BB9526813600020704700BF04000020E5
:1028480030B50C460E4985B00291D0F8D411054632
:10285800CDE9003100F1F0014FF0FF33204617F0C9
:102868005FFF50B9012384F86C30D5F8D03123B11B
:10287800204605B0BDE83040184705B030BD00BF60
:102888003346020038B50C461146054621F0CFFE06
:10289800034638B92846044921F0C9FE03460020FA
:1028A800236038BD0120FBE7793203002DE9F04FA2
:1028B80001238146056946688FB005F56B77D7E82F
:1028C800EF2F002A03D1C7E8E13F0029F7D10CBF59
:1028D8001A46002240F0BB80B368B16A05F5F87863
:1028E8001C1F104621F02AFF844279D8013A00F0D3
:1028F800A880B2FA82F24FF00044D44072682046B1
:10290800073222F00302C5F83C22B16A21F016FF13
:10291800C5F84002B36A40466343033323F0030318
:1029280002EB4302230103EB4403093323F00303BF
:1029380003EBC403C5F834221A440832C5F8302220
:102948007368C5F83842C5F82C32424BC5E9AD6307
:10295800316800F0F1F9044600283FD1D9F810B0E9
:10296800D9F804A0D9F800300BF534790590049310
:102978004846DAE90734012B08BF103C1AF02AF957
:10298800DAF82400344904AB009301EB8021234694
:1029980048464FF480621AF037F92021DAF82430DB
:1029A8002E4A06A81FF01CFD06A948461AF012FC7C
:1029B8002B490BF5307019F09FFFDAE905018368A0
:1029C8005C684CB15B46274AA047044630B9DAE94F
:1029D800050183681B692BB96FF05704002129E0B2
:1029E80001327EE70122984704460028F6D11E4BA3
:1029F8002846C5F8D0311D4BC5F8D4311C4B03937C
:102A0800D5F840320293D5F83C32CDE9008305F57C
:102A18001173B26AD5F8A81300F056F904460028D5
:102A2800DCD105F1F00017F021FF0028C5F8B0034C
:102A38000ADB0221384621F02EFE20460FB0BDE801
:102A4800F08F6FF00B04C9E76FF01504C6E76FF05D
:102A58007704F2E789460200D844002052E60200D3
:102A68006F460200634602007D2A00001B480200F0
:102A7800CF46020013B5044640B100230122CDE938
:102A88000032074BD0E9091217F01EFE236F1B68AE
:102A980023B1606F02B0BDE81040184702B010BD06
:102AA8007932030013B504460846216901F56B71B4
:102AB800D1E8AF1F022910D193B1A0B10121CDE90E
:102AC80000311346D0E9091217F0FEFD074B984272
:102AD80008BF6FF00B0002B010BD6FF00F00FAE7EF
:102AE8006FF04C00F7E76FF00100F4E72EF8FFFFF6
:102AF8002DE9F34789461546066906F56B73D3E851
:102B0800AF3F022B64D1136823B96FF0150002B0F0
:102B1800BDE8F0871B78002BF7D0D6F8A8A3BAF148
:102B2800000F36D106F5EC774FF0FF324FF0FF3348
:102B3800384619F063F830462A6801A9FFF7A2FE63
:102B4800019C80461CB9384621F0A3FDDDE705F15C
:102B5800080323676B6984F86CA06367646460B1D9
:102B6800384621F096FD21463046A36E2A68FFF7C5
:102B780067FE0020C9F80040C9E71F22296804F150
:102B8800480028F04EFF384684F8678021F081FD20
:102B9800EFE73046104921F04AFD04460028B4D03A
:102BA800002705F1080303676B6980F86C704367B9
:102BB80040641F222968483028F033FF224601214B
:102BC800304684F8677000F061F80028D1D09CE79F
:102BD8006FF00F009BE700BF7932030010B50C4679
:102BE800006900F56B73D3E8AF3F022B0FD189B1B1
:102BF8000A4900F5307019F05FFF204628F00FFAF7
:102C080078220021204628F0D1FE002010BD6FF068
:102C18000F00FBE76FF00100F8E700BF80200020FD
:102C28002DE9F04F05460E4690460027D0F8C4A07F
:102C380085B0AAF5BE7421463046FDF7F3FAE0B92F
:102C4800114BA4F1480B0293DAF810303246CDE963
:102C5800008329464FF0FF335846AAF5E27917F06A
:102C68005FFD60B97823012203FB079383F86C208A
:102C7800DAF80C300BB158469847783417B105B0DC
:102C8800BDE8F08F0127D6E7494802001FB5144672
:102C980090B18AB1012912D10A4B00F1F0010293D7
:102CA800D0F8D431483201934FF0FF3320460093D7
:102CB80017F036FD04B010BD6FF01500FAE70020DC
:102CC800F8E700BF494802002DE9F04387B00E46F7
:102CD800DDE90E811446DDE910251F4630B329B31E
:102CE800DFF850C000F1F009002D08BF65469EB915
:102CF800CDE9034400F5E2742046059628F047FB29
:102D080003ABCDE900432A463B464146484617F007
:102D180069FF07B0BDE8F083002241460E9248469D
:102D28002A4607B0BDE8F04318F0ACB86FF01500BC
:102D3800EFE700BF292C0000F0B504462B4A87B006
:102D480004AB0E4692E8030083E80300002C49D048
:102D5800184617F0BFFB0546B0B94FF0FF33E16CDA
:102D680004F15407A163CDE9010000933846236DAF
:102D780004F1380227F005FEA06C21F090FDC4F89C
:102D8800BC0020B96FF00B05284607B0F0BDA06C59
:102D980021F085FDC4F8C0000028F3D0236CD4F8D6
:102DA800BC10C4F890300423C4F89430C4F8AC3094
:102DB8000223E3620E4BB4F84820C4F88C10616C0F
:102DC800236204F18C03C4F8A070A4F89820C4F816
:102DD800B870C4F8A810A4F8B020C4F8A400A6617C
:102DE8002363D1E76FF01505CEE700BF90C8020056
:102DF800C0CB020030B5002289B00F490F4828F037
:102E0800F0FC002200230024CDE906230E230C4DFC
:102E1800CDE903344FF400622846CDE90144094B5B
:102E2800094900941AF0EAFA084928461AF0D2F932
:102E3800204609B030BD00BF9D2F000008150020B6
:102E480048100020B9320000D84800205EE6020091
:102E58002DE9F047044607464FF00109DFF8508096
:102E680014B93846BDE8F08794FAA4F5B5FA85F5A3
:102E780009FA05F32E0108EB05156FEA030A24EA9F
:102E880003042B7B002BEBD058F806301B694BB999
:102E98004644736804222846196807EA0A0700F0BE
:102EA800EBFBDDE7284698470028D9D1F0E700BFBB
:102EB800BCC402002DE9F047DFF8B8902E4C8046DC
:102EC800A9EB04038F2B0F460BD92C4940F2411371
:102ED8002B4A2C4820F0D3FE40F24111284820F01C
:102EE800C5FE294821F027FD064660B3002528467F
:102EF800BDE8F087237B6BB12368DB680BB1204604
:102F0800984723681B69B3B9636804222046196887
:102F180000F0B2FB013610344C4518D91B494FF468
:102F2800A773174A174820F0AAFE194820F0A7FEF1
:102F38004FF4A771D2E7204698470028E4D00AFA50
:102F480006F31D43E6E705464FF0010AE4E7D1D34F
:102F5800B8F1000FCBD0002DC8D02846FFF778FF76
:102F68000546002FF7D000214FF4A4701BF0CAF8D3
:102F7800F1E700BFCCC40200BCC4020093E6020023
:102F880066E60200CADF0200BC200020C3E6020099
:102F9800E4E60200014819F0A3B900BF5C0B002069
:102FA80008B5034608462BB1044A136000F00AFF2F
:102FB800002008BD6FF01500FBE700BF30000020BF
:102FC80010B5044C237813B9034819F089F9012383
:102FD800237010BD444100205C0B002010B504464E
:102FE800094821F0A8FC3CB1084BD3E8EF1F013990
:102FF800C3E8E21F002AF8D1054828F0FEFBBDE827
:103008001040044819F06CB9B4200020B820002002
:10301800081500205C0B002000200146034BD3E874
:10302800EF0FC3E8E21F002AF9D17047B42000204F
:1030380070B5FFF7F1FF05460F4C104EB44219D991
:103048000F4940F201230F4A0F4820F018FE0F489D
:1030580020F015FE40F201210A4820F007FE6368BF
:103068005B792BB123685B6813B1294620469847E2
:103078001034E3E7F3D370BDBCC40200CCC4020033
:10308800C3E6020066E60200CADF0200E4E60200C8
:1030980010B5044C04492046FEF738F9034B1C6070
:1030A80010BD00BFC0080020ECCB0200A820002003
:1030B80008B50023084A4FF400411370074A08482E
:1030C8001360084A1360FFF76BFFFFF7E1FFBDE8E5
:1030D800084000F00FBA00BF45410020B42000208E
:1030E8003B490200B8200020014600220023014885
:1030F800FEF73EB9C00800200148FEF755BA00BFE8
:10310800C0080020024B01461868FEF7D5BA00BF78
:10311800A82000200148FEF741BB00BFC0080020DE
:103128002DE9F0413B4B1878002871D0FFF7E4FFF8
:103138000446002841D0384BD3E8EF1F0139C3E8D3
:10314800E21F002AF8D1354DDFF8D480454530D943
:10315800344940F2F513344A344820F090FD34489D
:1031680020F08DFD40F2F5112F4820F07FFD6B68AF
:103178005B793BB121784B0706D52B682146284659
:103188001B6898471035E1E720462688C1F3C20737
:1031980000F006FCC6F382160246002EEDD0002889
:1031A800EBDB01233946284600F0B2FAB042E9D3F6
:1031B800E3E7DCD32046FFF7A5FF1E4B1E4C1B6838
:1031C800002B19DD28F0C6FA4FF47A72A0FB02032F
:1031D80002FB0131C30B43EA4143D4E900209B1AA7
:1031E80040F2E9324FEAD13161EB0001934271F1CB
:1031F800000101D3FFF71CFFD4E9003213F57A73FD
:1032080042F10002C4E90032BDE8F041FFF782BF95
:10321800BDE8F08144410020B8200020BCC4020071
:10322800CCC40200C3E6020066E60200CADF020060
:10323800E4E60200B42000200015002070B5154D0A
:10324800297829BB0120FFF735FE134C134EB442F1
:1032580017D913494FF4DD73124A134820F00FFDB4
:10326800124820F00CFD4FF4DD710E4820F0FEFCF2
:1032780063685B791BB1236820469B6898471034C4
:10328800E5E7F5D3FFF74CFF0028FBD101232B70AE
:1032980070BD00BF45410020BCC40200CCC4020080
:1032A800C3E6020066E60200CADF0200E4E60200A6
:1032B8002DE9F047304B314FFB1A1B090BD1304930
:1032C80040F29E332F4A304820F0D9FC40F29E311C
:1032D8002C4820F0CBFC00210846FFF7EBFD044604
:1032E80050B340F267684FF0000928F09BFD274B68
:1032F800274A1B58136033B1264B1B68092B02DD84
:10330800254818F0EDFF0025DFF88CA044B12046D1
:10331800FFF79EFD044618B94FF0FF384FF0FF390C
:10332800FFF7FEFE064628B95DB942464B465046B1
:1033380019F03EF83546E9E74FF0FF384FF0FF390E
:10334800D3E70D4D08E0F0D22B689B691BB1002232
:103358002846114698471035BD42F4D90F4940F226
:103368009233084A084820F08AFC0D4820F087FC70
:1033780040F29231ACE700BFBCC40200CCC40200EA
:1033880003E7020066E60200CADF02000800000048
:10339800B0200020B82000205C0B0020C3E602000B
:1033A800E4E6020013B52C4821F0C5FA2B4B1B7834
:1033B800002B35D0EFF31184202383F31288BFF359
:1033C8006F8F27481BF07CF968B98823254A26495E
:1033D800264820F054FC2249254820F050FC88213A
:1033E800204820F043FC1E481BF08EF9FFF798FE9A
:1033F8001B481BF073F968B940F23113194A1D498B
:103408001A4820F03CFC16491B4820F038FC40F2D2
:103418003111E5E784F31188BFF36F8F02B010BD57
:10342800164B1B68002BF9D050B900220023144812
:10343800CDE900234FF4004200231BF0B9FDEDE76E
:103448000928EBD10E4828F0D8F90E4802B0BDE89B
:10345800104018F045BF00BFB820002045410020AB
:10346800AC20002019E3020046E30200CADF020094
:103478005BE3020071E3020088E30200B020002051
:10348800081500205C0B002010B5064B04461B688D
:1034980098472146A0600448FEF72EF8BDE8104082
:1034A800FFF780BF30000020C008002008B548B9E9
:1034B80006490748ED23074A20F0E1FBED210548BE
:1034C80020F0D4FB4368187908BD00BFA3E70200C9
:1034D800CADF02006BE70200044A054B9B1AB1EBF6
:1034E800D30F34BF52F831000020704734C30200B4
:1034F800BCC4020000210B480B4B30B51B1A0B4C07
:10350800DB080430994200D130BD10F8312025681D
:1035180002F0070225F007052A4344F8042B01317D
:10352800F0E700BF34C30200BCC402000809002051
:10353800F8B5064600240A4F0A4DED1BED08AC42CB
:1035480003D14FF0FF342046F8BD57F8340020B1BE
:103558003146FCF767FE0028F5D00134EFE700BFDD
:1035680034C30200BCC402002DE9F04715461F46CB
:103578002D4A2E4B8846D21AB5EBD20F0BD32C49C5
:103588002C484FF4DE732C4A20F079FB4FF4DE719F
:10359800294820F06BFB00281CDA4FF0000A54463B
:1035A800DFF89890264EA6EB09063609B24502D1F7
:1035B8002046BDE8F08709EB0A10FFF777FF3B4686
:1035C8002A464146FFF7D0FF844238BF04460AF135
:1035D800010AEBE703EBC5031C7914B1BC4228BF11
:1035E8003C460722174EC3B203EB430356F82500A7
:1035F8009A4020EA020004F0070202FA03F3184393
:103608000022032320FA03F101F007018A4203F1A3
:10361800030338BF0A461E2BF4D120F007001043DD
:1036280046F82500C4E700BFBCC4020034C302004A
:10363800BAE70200CADF020023E70200BCC40200A6
:10364800CCC4020008090020F8B506460F4600243D
:10365800074D084BED1AED08AC4200D3F8BD002128
:1036680022B23B463046013421F081F9A4B2F3E797
:10367800BCC4020034C3020038B5114B0D46C31A4E
:103688001B11013304461146DBB248B90D490E48F7
:10369800DF230E4A20F0F3FADF210C4820F0E6FA87
:1036A8004268137143689971FFF7CEFF012263687E
:1036B8001D6063685A71BDE83840FFF781BC00BFE0
:1036C800BCC40200A3E70200CADF02006BE70200E5
:1036D80010B5044658B90B490B4840F233130B4A4E
:1036E80020F0CDFA40F23311084820F0BFFA4368C1
:1036F8005B7913B10021FFF7A7FF002263685A71B5
:1037080010BD00BFA3E70200CADF02006BE702009A
:1037180038B514461D4698B1FFF7C8FE124A134B38
:103728009B1AB4EBD30F0ED3114912484FF4D4733C
:10373800114A20F0A4FA4FF4D4710F4820F096FAF9
:103748004FF0FF30EAE755B10C4BC0B253F82430C4
:1037580000EB400023FA00F000F0070038BD02EB50
:10376800C4021079FAE700BF34C30200BCC40200E7
:10377800BAE70200CADF020023E7020008090020B6
:103788002DE9F04F8FB0C1F34A2804AF0D4691469A
:10379800B8607B600C0DB8F1000F6CD000264FF0BC
:1037A800040B4FF00A0A07F11403C7F80C80C7E9A5
:1037B80007667E620193CDF808B0CDF800A007F146
:1037C8001C0332464846F968FDF7B8FAB0F5006FB1
:1037D800034620D33048036813F0060F17D06C4611
:1037E8008AB0D9F8041004AB2C4D1A46C3E9055128
:1037F80040F2FF71D9614FF400711984284B42F8E7
:10380800103F4FF412513346FFF7BAFFA5462C3745
:10381800BD46BDE8F08FC0F30A0804F1170018444C
:1038280020F0070080083B60FFF75EFC68F3532533
:10383800044640B33B6800F11001C7E9083607F1B8
:103848001403F961CDE900A3CDF808B04846154A3C
:10385800F96807F11C03FDF771FA002813DA124919
:1038680012484FF4A373124A20F009FA4FF4A371D7
:103878000F4820F0FBF904F1170020F0070080083A
:10388800FFF732FC044668F353252A4620467B6836
:10389800B96821F093F8BAE730090020EAE7020096
:1038A800040000019949020056E80200CADF02003C
:1038B80029E802002DE9F04F87B00446DDE9106AD7
:1038C800DDE9127993469846039147B33B46524641
:1038D80010210020CDF80090CDF81490FDF712F8D3
:1038E800051E0BDA294940F26513294A294820F0B8
:1038F800C6F940F26511264820F0B8F9B5F5006F11
:103908000EDB2548036813F0060F3CD040F2FF7326
:103918000221224A07B0BDE8F04F21F0A8B83D4681
:1039280006F11700284420F007008008FFF7DCFBA9
:1039380004F007040BF0070BE40044EA8B1444EA94
:10394800452444EA06540646A0B19FB13B46524678
:103958002946CDF800901030FCF7D4FF002809DA8A
:103968000A4940F285130A4A0A4820F088F940F2C9
:103978008511C0E7434622463046039907B0BDE8A3
:10398800F04F21F01BB807B0BDE8F08F55E80200F2
:1039980029E80200CADF0200300900205FE80200BF
:1039A800406820B1034BC01A40F38F0070474FF0B6
:1039B800FF307047080900200EB403B503AB53F875
:1039C800042B01460448019304F040F902B05DF865
:1039D80004EB03B0704700BF013A0000CA0605D4E3
:1039E8008B064CBF02490349FFF7E6BF704700BF8B
:1039F800D6060300E26C030038B54B6805461A6822
:103A0800CB680C469A4202D1084621F054F8636804
:103A1800D3E8EF2F511CC3E8E01F0028F8D1A368B2
:103A28009D5463681A68E3689A4209D905490648AB
:103A38007223064A20F023F97221044820F016F96F
:103A4800002038BDC6E80200CADF020097E802007D
:103A58002DE9F04F89B09B46149B9DF84CA0069326
:103A6800159B04460593169B0D469046179E049396
:103A7800BAF1000F00F0AD80BAF1040F0BD9A349D9
:103A880040F24623A24AA34820F0F9F840F2462122
:103A98009F4820F0EBF806F48073079320F065FF49
:103AA80006F00209024600283FD020469A49FFF74F
:103AB80083FF0746B9F1000F08D016F0440F36D13E
:103AC8002A4620469549FFF777FF074406F0010389
:103AD80053B1934B204653F82A20924B9249002A1F
:103AE80008BF1A46FFF768FF06F48073002B4AD018
:103AF80006F00803002B64D1B8F1000F67D04246E6
:103B080020468A49FFF758FF0546069B3D44002B8F
:103B18006ED1049B002B40F08380F30700F1F08006
:103B280031462046FFF75AFFE4E00746C2E7804BDC
:103B380018680028C9D07F4B4FF47A791B684FF07A
:103B48003C0CB5FBF3F5B5FBF0F14FF4616300FBFA
:103B5800115509FB05F5B1FBF3F2B5FBF0FE03FBCC
:103B6800121100FB1E55B1FBFCF309FB05F5B5FB73
:103B7800F0F50CFB131120460091CDE901E56E49E3
:103B8800FFF71AFFA1E706F00803EBB16B4B2046DD
:103B980053F82A206A49FFF70FFF0546B8F1000FCE
:103BA80005D0424620466149FFF706FF0544BBF1B0
:103BB800000FAAD05A4620466249FFF7FDFE054489
:103BC800A3E74FF0000BE1E706F00805E6E74546F6
:103BD8009BE7BBF1010F069B06D1DBB9049B002BC9
:103BE80000F0888000251BE0002BF7D0564812E033
:103BF80056482246069B56491FF0BCFF00280CDA9F
:103C080054494FF42873424A424820F038F84FF498
:103C180028713DE74D485546EBE7049B002B65D0DE
:103C2800DFF83481DFF83491049F3146102F2046A5
:103C380028BF10274FF0000BFFF7D0FE5D4542DC90
:103C4800059B494620461A78FFF7B6FE4FF0010B50
:103C58001BF0070F03D141462046FFF7ADFE5F4535
:103C680038D9059B4946204613F80B20FFF7A4FED8
:103C78000BF1010BBBF1100FEAD14FF0000B2046FE
:103C88003749FFF799FE5A46059B20469A5CA2F1F0
:103C980020015F2928BF2E223249FFF78DFE0BF144
:103CA800010BBBF1100F1AD01BF0070F03D14146CF
:103CB8002046FFF781FE5F455A46E5D84146204633
:103CC800FFF77AFEEBE741462046FFF775FE0BF15A
:103CD800010BB3E720462449FFF76EFEC8E7059BB2
:103CE8003B440593049BDB1B04939DD1BAF1000F61
:103CF8007FF413AF204609B0BDE8F04F20F0DBBEDB
:103D08002046084A0849FFF757FE09E7FBE8020082
:103D180097E80200CADF020006E902000AE9020089
:103D280000CC0200F6E80200864E03002FE90200EC
:103D3800C4200020C020002013E9020014CC020097
:103D480033E9020039E90200D94A0200013A0000C9
:103D5800557C00003EE90200AE6C030047E9020012
:103D68004DE9020046060300AC6C030042F20F73F3
:103D780073B58B4228BF0B46056804460521684683
:103D88000D4A1EF02DFB0646636828460B225B6829
:103D98000A4920F082FE63683246694628465B6815
:103DA80020F07BFE63681B2228465B68044920F0EC
:103DB80074FE02B070BD00BF634C03006BE90200E3
:103DC8004FE9020000210123064A904206D8064A1C
:103DD80001B901231360054B1860704701214008A1
:103DE8005B00F2E740420F00C0200020C420002002
:103DF800014B03600020704728CC020070B5104BBF
:103E08000D461C68B4B10F4B196800238B4202DBC6
:103E18006FF0010070BD224612F8106B864202D086
:103E280014460133F2E7E06827F0EEFA28B10020E3
:103E38002C60EFE76FF00C00ECE76FF01200E9E799
:103E48009000002034D0020010B5436888B0029377
:103E580083680C46CDE9033200230A68C068CDE9BF
:103E68000623054901AA059326F066F8079808B9BC
:103E7800059B236008B010BD614B020002460B464B
:103E8800014817F0BBBE00BFEC0A0020014817F03C
:103E980085BF00BFEC0A00202DE9F0410E4B054616
:103EA8001C680E4617469CB14FF0FF304FF0FF31AB
:103EB800FFF7E4FF63682046D3F8108032463B469C
:103EC8002946C0470446FFF7E1FF2046BDE8F081D8
:103ED8006FF00104F9E700BFC82000200023036049
:103EE800044B5A6812B9C3E9000070471060586063
:103EF800704700BFCC200020014B1860704700BFFE
:103F0800C82000201FB5CDE901014FF0FF304FF068
:103F1800FF310392FFF7B2FF074B1C6824B9FFF784
:103F2800B5FF204604B010BD636820461B6801A990
:103F380098472468F2E700BFCC2000200022024BFB
:103F4800C3E90022704700BFCC2000200022024BAA
:103F5800C3E90022FFF7F2BFD42000202DE9F74380
:103F680007460C4609B100230B600026254DDFF8F3
:103F780098904D4524D925499C23254A25481FF06A
:103F88007EFE25481FF07BFE9C2121481FF06EFE17
:103F9800D5F800803846414601AA20F01CFE50B1F1
:103FA80016B954B92E4606E000224046316820F082
:103FB80012FE0028F5D11835DBE7019B2360F1E7F5
:103FC800E6D3164B1D68C5B155F8188C38464146DE
:103FD80001AA183D20F0FFFD50B116B954B92E467C
:103FE80006E000224046316820F0F5FD0028F5D1B2
:103FF800AD69E8E7019B2360F1E7304603B0BDE80F
:10400800F08300BFCCC40200CCC40200C9E902009E
:1040180097E90200CADF0200E4E60200D42000208B
:104028002DE9F04784B002AFD7F8289004460D4632
:10403800164698467860B9F1000F07D0D9F80010F5
:1040480051BBD9F804A0BAF1000F2CD12046391D74
:10405800FFF784FF28B34346D0F80C903246294630
:104068007868C8470346E0B115480268520718D077
:104078006D468AB002AAD3614FF4007311491384C4
:10408800114BC2E9051442F8103F00234FF41151B7
:10409800FFF776FBAD4604E03A1D20F09CFD0028B2
:1040A800CFD1002007E0D9F80830324600932946DE
:1040B80043467868D0470837BD46BDE8F08700BF5B
:1040C800A4090020F1E902000400000138B50C4DF4
:1040D8004FF0FF334FF0FF320A4817F08FFD2B786F
:1040E8003BB9FFF733FF00F06DF8044610B9012320
:1040F8002B700024034817F051FE204638BD00BF3E
:1041080046410020EC0A00202DE9F0470646894682
:10411800048FDFF8ACA0013498B0A4B200F108070E
:10412800651EADB2B5F5004F47D04A23294605AA0A
:10413800384620F0F7F904F57F543F34A4B280469E
:104148002146012338460DF10B0220F0EBF9B8F1B6
:10415800000F014610DC002810DC338FAB4209D178
:1041680032466B1E22F8383F4FF40041022338468E
:10417800FEF736F92C46D3E7002808DC29463846EE
:1041880020F0CCF92146384620F0C8F9E5E708F1D7
:1041980060030DEB03080023524608F84C3C05A8C1
:1041A800CDF8009003AB0397ADF81040FFF738FF48
:1041B8000028DFD018B0BDE8F0870020FAE700BF7C
:1041C8002B4C02007FB50125694628460195FFF76B
:1041D80015FE044660BB284602AA01A920F0DEFCB1
:1041E800044610B110F10C0F22D10399B1F5803FAC
:1041F80023D200231846009A9468084484421AD3AC
:104208000133082BF9D10E4DA982EB825368284659
:10421800AB60D368EB6320F09CFD044640B9094EBF
:1042280028466E60FFF75AFE28466E60FFF764FE68
:10423800204604B070BD9BB2E5E76FF02004F7E7B5
:10424800DC2000203400002010B5044626F04EFA89
:1042580003490246204620F0C2FE002010BD00BFE0
:1042680036EA02001346002273B5044601920A2179
:10427800586801AA01F0AAFE019D95B920EAE074E8
:104288004FF40046294640F2E7304FF47A72002393
:10429800C4FB0601FBF7ACFF19F034FF284602B057
:1042A80070BD2A462046024920F0B5FE019DF5E77B
:1042B80062EA020008B5034A034920F090FE002094
:1042C80008BD00BF4FEB020056EB02002DE9F34199
:1042D8001746002304460A21B86801AA019301F091
:1042E80075FE019DC6B24DB12A462046134920F0FD
:1042F80092FE019D284602B0BDE8F081042E09D93E
:10430800324620460E4920F086FE204620F091FED7
:104318000125EFE77868FFF70BF9B0F1000804DA38
:1043280020467A68074920F076FE00213346084681
:104338000FFA88F220F01BFBDCE700BF81EB0200DC
:10434800A8EB0200BFEB020010B5044614F0C6FA51
:1043580007490246204620F042FE2046054920F043
:104368003EFE214604481AF02BFA002010BD00BF7B
:104378001EEC02003DEC02008543000070B58EB0D3
:1043880004460D46D0F89C6027F063F9034627F0F1
:1043980049FD214A21491058214A002B18BF1A46C5
:1043A8000092204A2346844218BF0A4628461E49DE
:1043B80020F015FED4E90A23CDE90023284694F914
:1043C8000E30227B194920F00AFE06A92022204639
:1043D80018F010FF636E02461549284620F0FFFDCD
:1043E800204605A927F043F9024628B12846114975
:1043F80020F0F5FD0EB070BD6422059B2846F11A29
:104408004A43B2FBF6F20091CDE901620A4932460D
:1044180020F0E5FDEEE700BF08000000AE6C0300E9
:1044280047EC0200060303004AEC020056EC0200C7
:1044380082EC020099EC0200C6EC020070B5054659
:1044480090B01C22002109A808AE27F0AFFA1A2262
:104458002021304627F0AAFA294616481AF0B0F962
:104468004FF40061144807AA27F0F5F8044648B14C
:10447800124913485023134A1FF001FC50211148D8
:104488001FF0F4FB6423079A0096C2F500614B43C2
:10449800DB0A05934FF40063CDE90313CDE901323C
:1044A80009490346044A284620F099FD204610B0E1
:1044B80070BD00BFD5440000D861002010E30200A1
:1044C800CADF020017ED02005EED020070B5044677
:1044D8000D46D0F89C6088B007A927F0C8F80246B6
:1044E80028B128460E4920F07AFD08B070BD204654
:1044F80027F0AFF86422079B0096F11A4A43B2FBF3
:10450800F6F2CDE90131074BCDE90362002818BF67
:10451800034622462846044920F061FDE5E700BF2E
:1045280099EC020047EC0200A7ED02002DE9F04FDC
:1045380087B00446684616F0DDFC1823009F082162
:1045480003FB0077264A204620F02EFDDFF894A0D2
:10455800009DDFF894B0BD4203D3002007B0BDE84A
:10456800F08F2B680BB11A7832B92B4614211F4AE9
:1045780001A81DF035FF01AB52460821204620F066
:1045880013FD284626F040FF194B0821002808BFD4
:104598005B46184A204620F007FD6B69A3B11E68E8
:1045A80096B1336883B108212046134A20F0FCFCF9
:1045B800B1464FF000083368104A434506D8082131
:1045C80020460F4A20F0F0FC1835C4E708212046A1
:1045D80059F8043F20F0E8FC08F10108EBE700BFB8
:1045E80011EE020020EE0200833E03001BEE0200E3
:1045F8000BEE0200A721030025EE0200854E030002
:10460800D60603002DE9F0411446884607461022D5
:10461800002160681DF086FFB8F1020F064607D832
:10462800202308213846244A20F0BEFC336816E0CF
:104638000A220021A0681DF075FFC5B22B4608218B
:1046480038461D4A20F0B0FCB8F1030F1AD1102DDE
:104658000CD0202DEAD0082D0BD13378DBB20821FD
:104668003846164A20F0A0FC002009E033889BB2A7
:10467800F5E738460821124A20F096FC6FF015003D
:10468800BDE8F08110220021E0681DF04BFF0821F1
:10469800034604460B4A384620F086FC102D06D007
:1046A800202D07D0082DE4D1E4B23470DCE7A4B2A1
:1046B8003480D9E73460D7E766EE020091EE020055
:1046C8007BEE0200A2EE020000232DE9F04F914696
:1046D8004FF0FF35012287B00193504B07468846BB
:1046E8001A60202603F0F4FA2C46DFF834A1494674
:1046F8005246404603F014FB411C06D16A1C41D1C6
:104708004849384620F087FC17E073281AD07728E4
:1047180028D0612811D1DFF810B11021DBF8000092
:1047280001AA01F053FC019B0546002BDFD0DBF802
:1047380000203E49384620F06EFC6FF0150007B0A7
:10474800BDE8F08FDFF8E0B00021DBF8000001AA37
:1047580001F03CFC019B0446002BC8D0DBF800208C
:104768003349E7E7DFF8C0B00021DBF8000001AA11
:1047780001F02CFC019B0646002BB8D0DBF800208A
:104788002C49D7E7631C01D12B49BAE75FFA86F8B1
:10479800C6F3C406002C3FD002AB29461A46A6EB46
:1047A800050C0CE0B8F1100F1DD0B8F1200F20D087
:1047B800B8F1080F2AD10878187031443344A6425A
:1047C80003D80CEB01001028ECD9102CA14628BF07
:1047D8004FF0100929464B46384601F0C9F9103503
:1047E800A4EB0904D6E7088880B21870000A58704C
:1047F800E3E708684FEA102E187083F801E04FEAE3
:10480800104E000E83F802E0D870D6E7082138462B
:104818000A4A20F0C9FB90E7204690E7E400002010
:10482800F0EE0200F7EE0200202A0020B6EE0200A9
:10483800C9EE0200DCEE020014EF02007BEE02007B
:1048480070B50F4E04460D46337871B123B10D494A
:10485800BDE8704020F0DFBB0123337020460A49D1
:1048680020F0BDFB0123337004E083F001033370B3
:10487800002BF3D129462046BDE8704001F006BB65
:10488800474100202EEF020069EF020070B5044690
:104898003B480378182B02D10B78112B31D00B46EB
:1048A800013A8D18AB4225D18B5C0A780370A2F1CE
:1048B8003003092B334C04D922F02003413B052B4C
:1048C80004D823683049CA54013323602368022B73
:1048D80033D1102200212C481DF024FE2B4A1368E6
:1048E80003F8010B13602A4A13680133136000238D
:1048F800236022E013F8016B182ED3D11E78112EF5
:10490800D0D1234D20462A68224920F068FB204652
:104918000021FFF795FF204B187870B91F4A2B68C4
:104928001168042B0ADC08B111602B6013F0030135
:104938000BD1126813681BBA136070BD0868043B7A
:1049480000BA41F8040B0120EBE75B4203F00303D4
:1049580058BF5942022904D1126813885BBA9BB226
:10496800EAE70329E9D1106802681104C2F3074392
:1049780001F47F010B4302F47F4213430360DCE739
:10498800484100201C2100204A4100202821002005
:104998002021002093EF020049410020242100201B
:1049A8002DE9F84F0023064615460C462949DFF83D
:1049B800A8800B602949DFF8A890DFF8A8B088F82C
:1049C80000300B60012C2F4655F804AF1ED9022287
:1049D8004946504627F013F880B99AF80220003A61
:1049E80018BF01229244504602221F4927F007F8B7
:1049F80030B9012388F80030013CE3E70022F1E7F1
:104A080049465046FBF70EFCA8B9043700227868DF
:104A180011461DF087FD0022144B11461860786876
:104A28001DF080FD124B134918603046FFF708FF50
:104A38000020BDE8F88F9AF800202D2AE6D19AF8D0
:104A48000120002AE2D052465946304620F0C7FAE3
:104A5800D2E700BF1C21002049410020202100206E
:104A6800ADEF0200B3EF0200B0EF020028210020F2
:104A7800242100209548000007B50A4826F0C4FC08
:104A880060B10423084A00931268012305490748C6
:104A980001F054F9002003B05DF804FB6FF0120038
:104AA800F9E700BF78BF0200D0CC0200CCC40200F6
:104AB80010B54468A3604023C4E900124268082185
:104AC800D36402F1580313630023C2E90E33C2E929
:104AD8001133C2E90633C2E90933D162146802F11D
:104AE800500153631364116153611362C2F8D030EB
:104AF800A36823B11B6C13B1204604499847A368E7
:104B08001B6A0BB120469847002010BD194B0000C6
:104B18002DE9F74304460D468368DB6B03B19847DC
:104B2800A368DB6A03BB4FF0000905F13008404673
:104B3800EA6C01A91FF065FA074600284CD0A36863
:104B480001991B6963BB6FF0570140461FF076FA65
:104B5800002854D03B496E233B4A3C481FF08FF84D
:104B68006E2139481FF082F8204698470028DAD18C
:104B7800A368DB69002B45D105F110073846EA6ABE
:104B880001A91FF070FA0646002842D1204620F0FD
:104B980011F9C5F8D0600120D5E90131984735E011
:104BA8000246204698470646014640463EB91FF051
:104BB80045FA0028CED1B9F1000FD9D007E01FF08F
:104BC8003DFA0028C6D1B7424FF00109AFD0002006
:104BD800D5E901319847CBE71D48036813F0060F64
:104BE80003D002211B4A1FF039FFA3681B69002B61
:104BF800E1D0012220460DF103019847DBE76FF071
:104C08005706E0E7204698470028B5D103B0BDE82D
:104C1800F083A3680199DB6883B102462046984770
:104C2800014638461FF03BFA0028B4D00549BA239C
:104C3800054A06481FF023F8BA2192E76FF057019A
:104C4800EFE700BF10E302001AF10200CADF02001A
:104C5800AC09002050F1020010B5044681681831F3
:104C680001F0E6FCA1682046BDE81040014A183171
:104C780001F084BC92F1020038B5044658B91F49C6
:104C880040F2F4431E4A1F481EF0F9FF40F2F44177
:104C98001B481EF0EBFF83680BB142684AB91A49FA
:104CA80040F2F543164A17481EF0E9FF40F2F54175
:104CB800EEE7D3F89832DB071DD4C06920F098FEE0
:104CC800606803685B689847054620B9E06821F08A
:104CD8003EF8A3681D75A3685B6C13B1294620468E
:104CE8009847002227F09EF8A368C3F84023074B93
:104CF800185802F0E7FB6FF00F05ECE7B4FC020070
:104D0800A0F10200CADF0200C8F10200080000009A
:104D1800014920F0E1B800BFD6060300F7B5044604
:104D280080680D46D0F898325A0705D5002120F042
:104D3800F1F8E06820F0DDFFE368DB6873B9002D67
:104D48003BD0A66806F17607384620F0D2F800284E
:104D580035D0394606F5BB70FBF76EFAA2682946CE
:104D6800E0680DF10603763220F0C6FF58B9A06856
:104D780000F5BB717630FBF75FFAA068763020F05B
:104D8800B8F8ADF80600204620F05CFCA368D3F81C
:104D980094329B0603D50B49606920F09DF82046A4
:104DA80001F07AF9A268BDF806302046A2F8723000
:104DB800A268A2F8703020F0AAFB03B0F0BD86F814
:104DC8007601CBE7ACC802002DE9F04FA7B0044646
:104DD8005422002111A826F0E9FD0023CDE905336E
:104DE800A36820467633029320F033FC204620F057
:104DF80077FB10B96069FFF78BFF00264FF0FF378C
:104E0800B246B3463546B146A06814220021183090
:104E180026F0CCFD204620F009FBA168E068B1F837
:104E28007020763120F09FFF204621F01EF80DF10A
:104E380044080396DDE90532012A6AD0132B6BD8A2
:104E480067BBBBF1000F0AD0204621F02FF81423CE
:104E5800A26811A976320DEB030020F067F9B9F1C9
:104E6800000F0CD099F81130FE2B08D1059B26AA0B
:104E780002EB830252F8542C0AB101330593A5685A
:104E8800059B6A6A002A40F0B380D6B1EB699E425E
:104E980027D12046FFF7E0FE012514E00223414612
:104EA800029A06A820F042F9D8F804200699034689
:104EB800029231B101290AD148B16D4A204601F068
:104EC800D7F96FF00705284627B0BDE8F08F059B96
:104ED800002B30D0D8F8000020F076FE78B146B12B
:104EE800A5680D9618350CAE0FCE0FC533682B602C
:104EF800CFE7604A0121204601F0BAF9E1E7059BB6
:104F0800CBB129462046D8F8002001F055FD0228EB
:104F180009D1059B132B94D9069B022B91D1012112
:104F2800554B564ACAE7032805D0059B4FF0010B9D
:104F3800013305937EE7039B33B94846D8F8001040
:104F480007AA20F0EAF9054608F10408013F9DB3D5
:104F5800EB68BBF1000F08D0F3B1204620F079FBD5
:104F6800204620F0D4FA464AC4E7ABB1AE46A3685F
:104F7800DDF814A003F1180CBEE80F00ACE80F0030
:104F8800DEF80030CCF80030AB682BB96B7CFE2B18
:104F980004BF2F7C07F1FF37D5F804C0BCF1000F20
:104FA80008D0AE460CAEBEE80F000FC6DEF80030E3
:104FB80033606646A94603E0059B53B1012303937A
:104FC800069B17B9022B7FF435AF059B0133059378
:104FD80030E7A368DB6A13B1DB68002BEED1294BFD
:104FE800012100932046119B274A01F041F9E5E78A
:104FF800A3EB0A0695F82830BBB14FF6FF7295F877
:105008002910FF2918BF0A469E4202D313449E4224
:105018000BD9AB69012120461C4A01F029F9204629
:10502800FFF71AFE6FF015054DE702F051FE01215A
:10503800A0681FF064FFA06800F54B701FF083FFA5
:10504800A36811AA314602EB8A0220465B6A984798
:105058000546A0684FF0FF324FF0FF3300F54B7064
:105068001FF022FF0021A0681FF049FF2BE700BFB7
:10507800DDF10200F1F1020052F202001C200300EF
:105088000FF202003EF20200AA19030076F20200B3
:10509800022210B5836804461A7583689B6CBBB9F5
:1050A8001FF0E1FE8368D3F89832DB040BD50321A7
:1050B800084B094A01F0DCF8A0686FF4805100F54C
:1050C80026701FF0E6FE2046BDE8104001F010BA39
:1050D80010BD00BF91F20200864E03002DE9F04F8B
:1050E8000446B1B058B9B54940F2D453B44AB548AA
:1050F8001EF0C5FD40F2D451B1481EF0B7FD8068DE
:1051080048B9B14940F2D553AD4AAE481EF0B7FD93
:1051180040F2D551F0E7012100F526701FF0AEFEF0
:10512800A3681B7D022B20D100230993A368606824
:105138009E6C03681D6909AB0EB310221BA9A84712
:10514800099B93B10121A0681FF0D9FE2046099A56
:105158001BA9B0470021A0681FF0D1FEA3689B6C73
:10516800002BE3D12046FFF793FF6FF00101A06801
:1051780000F5267031B0BDE8F04F1FF08ABE01225D
:105188000DF12301A847099B002BEED09DF92320A0
:105198009DF82310002AA368C8DB5A7D032A00F271
:1051A800CC82DFE812F00400B902E702CA020D2936
:1051B8007CD00A2958D0B3F8982209296FF3CA027B
:1051C800A3F89822A06800F086803DD80029ADD0C9
:1051D800082900F030820346D3F894229207A5D517
:1051E80001391629A2D801A252F821F01D58000051
:1051F80079560000815600007156000011580000D1
:105208009F5600003551000035510000355100000F
:1052180035510000A7560000AF5600003551000078
:10522800D956000035510000E35600003551000002
:10523800355100003551000035510000E756000097
:1052480035510000115700001B2941D07F2900F07B
:10525800FE81A1F120025E2A0346BDD801211FF07C
:1052680059FE9DF82310F5E0D3F89822C2F3C7023F
:105278002AB1D3F89822C2F3C7020A2AACD1B3F8EC
:10528800982261F3CA02A3F89822A568B5F87010AD
:10529800C1B928461FF03EFEE06820F02AFD60698B
:1052A800FFF736FD2046FFF7F3FE3FE7D3F89822D5
:1052B800C2F3C702002AE2D0D3F89822C2F3C70289
:1052C8000D2ADBE72046FFF77FFDC5F84403E9E731
:1052D800012343752AE7D0F894329B077FF526AF60
:1052E80001211FF017FEA068B0F87030FF2B3FF4C3
:1052F8001DAF0025B0F8722000F1760100F5BB70F3
:1053080026F02DFBA3681BA9B3F872200BA8134441
:1053180083F87651A268142302F5BB721FF006FFCA
:105328000B9914293FF602AF30AB03EB810343F826
:10533800545CA368B3F87220002A49D0134493F848
:105348007530202B02D0093B042B41D8002942D1CB
:1053580000250A950A9B30AA02EB830353F854AC44
:10536800002650461FF0C5FDB3468146B046374675
:105378003946284616AA00F0B9FD0346002836D15A
:10538800012EA7687BD10A9B30AA02EB830353F84E
:10539800540C1FF0AEFD4146064607F11802284698
:1053A80000F0A4FD002839D108494FF4B873044A25
:1053B80004481EF064FC4FF4B8719DE6B4FC02008A
:1053C800A0F10200CADF0200D5F20200DDF20200FD
:1053D8000129BDD9013900200CAB009301900AAB1B
:1053E8001BAA1FF0C5FF05460028B3D19EE61B681F
:1053F8004A4651461846039326F001FB60B9039BC1
:105408001846FAF721FF584538BF5846002E08BFFE
:10541800B8461FFA80FB01360137A9E70568284618
:105428001FF067FD864205D0821B92B22046A9195B
:1054380020F0B7F9A068B0F87230034493F87630DA
:10544800202B0BD0093B042B08D9D0F89432DF0766
:1054580009D42021204601F013F867E601212046EF
:1054680020F089F862E600211FF05EFD2021204629
:1054780001F006F80121A0681FF056FD56E60390DA
:105488007FF654AE0A9A30AB03EB820252F8543CD2
:10549800184604931FF02DFD039B0690A7F8403093
:1054A8000596CDF80C80A26828460399183200F0BA
:1054B8001DFD48B9A44940F2B913A44AA4481EF0F6
:1054C800DEFB40F2B91117E6039BD0F800A00133C8
:1054D8000393049BD4F80890FBB1BAF1000F1FD0D6
:1054E80019465046069A26F08AFA0028DBD19948D0
:1054F8001FF0FFFCB9F83A1000EB0B07BFB2091A0E
:1055080091FBF7F189B2002933D1934990238F4A4F
:105518008F481EF0B4FB9021EEE5BAF1000FE6D1FA
:105528000023A9F84030059B013B0593BBD1606976
:10553800FFF7EEFB204600F0DBFF0A9B30AA02EBE8
:10554800830353F8540C1FF0D4FC4146814611AA3A
:10555800284600F0CBFC08F1010A074678BB7F49D2
:1055680040F2D513794A7A481EF089FB40F2D511EA
:10557800C2E5504607911FF0BCFCB9F840200799D6
:105588003F1A501CA9F84000B2FBF1F001FB1022B1
:1055980092B2BFB262B9062120466E4B704ACDF86E
:1055A80000A000F065FE3946204600F05FFDBAE72E
:1055B8005346062120466B4A00F05AFEF3E7A068DE
:1055C8003968FF2200F5BB7026F02BFA3B684FF6CE
:1055D800FF77B84603935146284616AA0AF1010BED
:1055E80000F084FCD8B10022A168036801F27511AB
:1055F80011F801EF985C704503D110B101324245B2
:10560800F6D1B9F1000F01D04A4506DBBA42A8BF6E
:105618003A46013E012E97B201D0DA46DBE7002F69
:105628003FF484AD0399A7EB0902204692B249449E
:1056380020F0B7F87AE5D0F894329E077FF576AD7A
:1056480001211FF067FC204620F0CCF86EE5D0F869
:1056580094329D077FF56AAD01211FF05BFCA368BA
:10566800D3F894321907EED4204620F09CF85DE573
:1056780020461FF0F7FF59E520461FF0EAFF2046B5
:105688001FF02EFF10B96069FFF742FB0121A068E7
:105698001FF040FC06E620461FF0EDFF46E52046D9
:1056A8001FF0F4FF42E5D3F894329B0603D52E4948
:1056B80060691FF011FCA368D3F894329F0603D5E4
:1056C8002A4960691FF008FC204600F011FF2DE50B
:1056D80000212046FFF722FB28E50121F9E72046B3
:1056E8001FF0B0FF20461FF0BEFB0121A0681FF08D
:1056F80011FCA368D3F894329E067FF517AD1C49B8
:1057080060691FF0E9FB11E5204600F017FE012152
:10571800A0681FF0FFFB09E55B2902D102225A7538
:1057280004E5D3F894329D0706D5622907D14FF0D6
:10573800FF3120461FF048FFA3680022EFE76629E3
:10574800FAD10121F5E700BFDDF20200A0F1020065
:10575800CADF0200AD6C0300F2F2020005F302009A
:10576800FFF20200864E0300B1C80200B6C802006C
:10577800ACC8020000225A75A268D2F89432980781
:105788007FF5D4ACA1F131031B2B3FF6CFAC01A1BF
:1057980051F823F019580000255800003958000026
:1057A8000D580000355100003551000035510000FA
:1057B80035510000355100003551000035510000C9
:1057C80035510000355100003551000035510000B9
:1057D80035510000E3560000D95600009F560000DE
:1057E800795600003551000011580000355100006D
:1057F8001D5800003551000035510000355100009A
:10580800295800000323537520461FF022FF8DE41A
:105818000323537520461FF015FF87E403235375B0
:10582800A068D0F8941201F0010181F0010123E68B
:1058380003235375A368D3F894329B077FF576AC9E
:1058480012E700BF10B5044658B926494FF4B363B0
:10585800254A26481EF013FA4FF4B36122481EF079
:1058680005FA83681BB142680AB102684AB920493F
:1058780040F299531C4A1D481EF001FA40F2995112
:10588800ECE71A7D012A29D1D3F89822510408D5CA
:10589800D3F89422520704D40146DA6CC06920F088
:1058A80090F8A0684FF0FF324FF0FF3300F54B70CF
:1058B8001FF0FAFA0821204600F09CFC6069FFF707
:1058C80027FA2046FFF7E4FB204600F029FEA068EF
:1058D80000F54B701FF037FB002010BD6FF08500FE
:1058E800FBE700BFB4FC0200A0F10200CADF02001F
:1058F8000BF302002DE9F04104468068154600F5D7
:105908002670002937D04FF480411FF0B7FAA368FA
:105918000021DD64606803689B68984700284BD1C4
:105928002046FFF78FFF002846D1244E244FDFF88A
:105938009480A06800F537704FF0FF324FF0FF33C6
:10594800032119F0BDFD0546A0684FF0FF324FF066
:10595800FF3300F54B709DB11FF0A6FA20462B4689
:105968000121194A00F084FCA068BDE8F04100F567
:105978004B701FF0E8BA6FF480411FF08AFAC6E74F
:105988001FF092FA3246022120461FF08FFA3A465B
:10599800294620461FF08AFA2046424601211FF078
:1059A80085FA606803685B6903B19847A06800F5E9
:1059B8004B701FF0C8FABCE7BDE8F081814C0000CD
:1059C800E5500000534F020036F302002DE9F04184
:1059D8000F4616469846044658B94A4940F2FC53C1
:1059E800494A4A481EF04BF940F2FC5146481EF01D
:1059F8003DF925F028FE60B1454940F2FD53424A81
:105A080042481EF03CF943481EF039F940F2FD5176
:105A1800ECE7A5684DB9404940F2FE533A4A3B4885
:105A28001EF02DF940F2FE51E0E7D5F898321B053B
:105A380011D426F0F7F9394BD5F840231B589A4270
:105A480009D1374940F2FF532F4A30481EF017F961
:105A580040F2FF51CAE763694BB9324940F201632A
:105A6800294A2A481EF00BF940F20161BEE74EB9F7
:105A78002D4940F20263244A24481EF000F940F2FE
:105A88000261B3E72B7D022B07D005F526704FF492
:105A98008051BDE8F0411FF0F1B94FF0FF324FF0EF
:105AA800FF3305F54B701FF0FFF9A368D3F8982270
:105AB800100508D49A6C32B9D3F89432990602D5F5
:105AC80020461FF0F1FD43463246394620461FF076
